:100000000C9414000C941E000C941E000C941E0002
:100010000C941E000C941E000C941E000C941E00E8
:100020000C941E000C941E0011241FBECFEFD0E1D3
:10003000DEBFCDBF0E9420000C9460000C94000035
:10004000BD9A8FB582688FBD8EB58B618EBD1092C3
:100050007A0087E893E197BD86BD4DE750E087E7DA
:1000600091E021E732E05BBD4ABD6FEF73EDE0E365
:1000700061507040E040E1F700C000009BBD8ABDC8
:100080006FEF73EDE0E361507040E040E1F700C0D6
:1000900000003BBD2ABD6FEF73EDE0E3615070409F
:1000A000E040E1F700C000009BBD8ABD6FEF73ED3B
:1000B000E0E361507040E040E1F700C00000D3CFC2
:0400C000F894FFCFE2
:00000001FF
